:020000040800F2
:10000000B00E002005010008773500080730000811
:100010007535000849090008C93A000800000000C9
:1000200000000000000000000000000017010008B0
:10003000970D0008000000001B0100085F36000853
:100040001F0100081F0100081F0100081F01000810
:100050001F0100081F010008990D00081F0100087A
:100060001F0100081F0100081F0100081F010008F0
:10007000610D00086D0D00081F0100081F01000838
:100080001F0100081F0100084D0800081F0100089B
:100090001F0100081F0100081F0100089F0D000834
:1000A0001F0100081F0100081F0100081F010008B0
:1000B0001F0100081F010008B53600081F010008D5
:1000C0001F0100081F0100081F0100081F01000890
:1000D0001F010008A53A0008B13A0008BD3A00081F
:1000E0001F0100081F0100081F010008DFF810D0E1
:1000F00000F0BAFA00F070F800480047994800088C
:10010000B00E00200648804706480047FEE7FEE79D
:10011000FEE7FEE7FEE7FEE7FEE7FEE7FEE7FEE7B7
:100120006D360008ED000008202A04DB203A21FA91
:1001300002F00021704721FA02F3D040C2F1200200
:100140009140084319467047D2B201E000F8012BF4
:10015000491EFBD270470022F6E710B513460A4647
:1001600004461946FFF7F0FF204610BD30B505469E
:100170002A460B4612F8010B13F8014B08B1A042B6
:10018000F8D01CB1002802D06D1CF1E7284630BD24
:10019000CAB2401E10F8011F8A4202D00029F9D1CC
:1001A0000020704730B504460020034600E05B1C89
:1001B000934203D2E05CCD5C401BF8D030BD70B5FB
:1001C000064603F09DFE046805460A2200213046DB
:1001D00000F059F82C6070BD70B5054C054D03E07A
:1001E000206820448047241DAC42F9D170BD000036
:1001F000A44B0008A84B000830B50B460146002070
:100200002022012409E021FA02F59D4205D303FAD8
:1002100002F5491B04FA02F52844151EA2F1010259
:10022000F1DC30BD2DE9F05F0546002092469B468B
:1002300088460646814640241BE0284641464746FC
:100240002246FFF771FF53465A46C01A914110D318
:1002500011461846224600F019FA2D1A67EB0108DC
:100260004F4622460120002100F010FA17EB00094A
:100270004E41201EA4F10104DFDC484631462A46E7
:100280004346BDE8F09F2DE9F04791460F46804672
:100290000446002614F8015B2DB100F019FA00683D
:1002A000405DC007F6D12B2D02D02D2D18D0641E35
:1002B0004A463946204600F00FFA27B13968A14274
:1002C00001D1C7F8008071054FF002040BD5404200
:1002D000002803DD03F014FE0460A007BDE8F087EA
:1002E00046F48066E4E70028F8DA03F009FE0460CB
:1002F0006FF00040F2E72DE9FE4F804681EA0300EF
:10030000C00F0C46009021F0004123F00045B8EBEF
:100310000200A94105D24046214690461C460B46A4
:10032000024623F00040104347D0270DC7F30A00D0
:10033000C3F30A510290401A019040286BDAC3F3CC
:10034000130040F4801B0098924620B10023D2EBAA
:10035000030A63EB0B0B01985946C0F1400250466B
:1003600000F094F906460D4650465946019A00F0B1
:100370009CF910EB08006141002487EA115284EADD
:10038000E7731A4340D0009A62B3019A012A4FEAF8
:10039000075215DC001B61EB02014FF0004202EA3C
:1003A0000752CDE90042001C41F5801132462B4630
:1003B00000F0F0F903B0BDE8F08F40462146F9E7C0
:1003C000001B61EB0201001C41F5801300185B412A
:1003D0002018A2F5001747EB030140EAD570B619C3
:1003E0006D4111E06D084FEA360645EAC0754FEAE7
:1003F0000752001B61EB0201001C41F58011490806
:100400004FEA30000019514132462B4603B0BDE897
:10041000F04F00F0B0B90098012240000023D0EB6B
:10042000020263EBE073009821464FEAE074B8EBF8
:10043000000061EB0401E9E783F000435BE781F032
:10044000004158E72DE9FE4F81EA030404F000441F
:1004500021F0004100944FF0000B23F0004350EADC
:1004600001045ED052EA03045BD0C3F30A54C1F323
:100470000A552C44A4F2F3340194A0FB0254C1F3B6
:10048000130141F48011C3F3130343F4801301FB00
:10049000024400FB034E840A970A44EA815447EA67
:1004A0008357A4FB076802958D0A05FB07854FEA71
:1004B000932C04FB0C542705029D4FEA065847EA8B
:1004C0001637B5EB08056EEB070C870E920E47EA60
:1004D000811742EA8312A7FB0201B6EB0B0164EB22
:1004E00000042B0D43EA0C335E1844EB1C50DA4633
:1004F0005146E7FB0201C5F313044FEA0B3343EA0D
:1005000014534FEA0432019C43EA0603A4F10C049D
:100510000294009CCDE900B400F03CF903B0BDE8C2
:10052000F08F00200146F9E72DE9F04D81EA030440
:1005300004F0004B21F0004514464FF0000A23F070
:10054000004150EA050220D054EA01021DD0C5F353
:100550000A570246C5F31303C1F31300C1F30A5649
:1005600040F4801543F48013A7EB0608101BD64611
:1005700008F2FD3873EB050002D308F1010801E031
:1005800092185B41B8F1000F03DA00200146BDE884
:10059000F08D00204FF48011064684460EE0171BB4
:1005A00073EB050705D3121B63EB050306434CEA07
:1005B000010C49084FEA300092185B4150EA0107EC
:1005C000EDD152EA030012D082EA040083EA050169
:1005D000084305D0101BAB4106D20122002306E0E0
:1005E00000224FF0004302E06FF0010253101AEBBB
:1005F00006004CEB085110EB0A0041EB0B01BDE883
:10060000F04D00F0B8B8C1F30A52C1F3130140F243
:10061000FF3341F480119A4202DA0020014670470C
:1006200040F233439A42A2F2334202DC5242FFF7D5
:100630007BBD00F02BB8000030B5041E71F1000442
:1006400004DB4FF00044404264EB0101141E73F1DF
:10065000000405DB1C464FF00043524263EB0403E9
:10066000994208BF904230BD064C074D06E0E06855
:1006700040F0010394E8070098471034AC42F6D3E9
:10068000FFF738FD844B0008A44B0008202A04DB48
:10069000203A00FA02F1002070479140C2F1200395
:1006A00020FA03F3194390407047202A06DBCB174A
:1006B000203A41FA02F043EAE07306E041FA02F31D
:1006C000D040C2F120029140084319467047000013
:1006D00000487047504B00082DE9F05F82460078D3
:1006E000002715468B460AF10104B946302801D08F
:1006F0009DB113E014F8010B0127782803D0582886
:1007000001D045B10AE00DB1102D07D10027102509
:1007100014F8010B02E0082500E00A250026B04687
:100720000EE005FB080005FB06F1012701EB104672
:100730001FFA80F8B6F5803F00D3B94614F8010BD4
:10074000294600F075F80028EBDABBF1000F05D060
:100750000FB1641E00E05446CBF80040B9F1000F21
:1007600006D003F0CDFB02210160C81EBDE8F09F5A
:1007700048EA0640FAE710B5141E73F1000408DADF
:10078000401C41F1000192185B411A4301D120F055
:10079000010010BD2DE9F04D92469B4611B1B1FA12
:1007A00081F202E0B0FA80F220329046FFF76EFF4D
:1007B00004460F4640EA0A0041EA0B0153465A46F6
:1007C000084313D0114653EA010019D0C8F1400282
:1007D0005046FFF7A9FC05460E465046594642468C
:1007E000FFF754FF084305D0012004E020463946B6
:1007F000BDE8F08D0020054346EAE0762C43374300
:100800000A986305E40AA0EB08000022FD0A44EA06
:1008100047540A3002D500200146E9E701051019C6
:100820006941DDE9084500196941BDE8F04DA2E7DD
:100830003A2800D2303820F02002412A01D3A2F118
:100840003700884201D34FF0FF307047014800F075
:1008500020BC00003009002070B5044600688168A3
:10086000C943C9071CD1816821F00101816001F0F1
:1008700093F805460FE000BF01F08EF8401B0228F8
:1008800009D9A06A40F01000A062E06A40F00100BF
:10089000E062012070BD20688068C043C007EBD0D3
:1008A000002070BD10B5040010D000F01FF84FF408
:1008B0009170A08040F2111020601420A0600A20E6
:1008C000E0602046BDE8104000F01AB810BD10B539
:1008D00004000AD000F00AF8A088B0F5917F04D097
:1008E0002046BDE81040FFF7DDBF10BD002805D051
:1008F000014610224FF47C4000F0ECBA7047000033
:1009000070B504001CD04FF47C4510220D492846D8
:1009100000F0E0FA102221460A48FFF743FC0028C5
:100920000ED000F0D2FA0121284600F0BEFA1022C3
:100930002946204600F0DAFABDE8704000F0B0BA6F
:1009400070BD000068030020FEE70000F8B5040059
:100950002ED0684603F04AFF002829DD3DA2EB2196
:1009600040A0009B04F04CF845A1009803F0B4FAB5
:100970000026F0B12021009803F0ACFA050017D052
:100980000021681C03F0A6FA002811D00670681C2C
:10099000FFF715FC83B2A0693AA2F721838031A04A
:1009A00004F02EF8A069FFF7ABFFA069FFF78FFFF7
:1009B000F8BD3EA1009803F08FFA20B93EA100983F
:1009C00003F08AFAD8B12021009803F083FA0500D9
:1009D000EED00021681C03F07DFA0028E8D00670F4
:1009E000681CFFF7ECFBA16980B28860A069FFF783
:1009F00087FFA06933A24FF48571836825E03BA18E
:100A0000009803F069FA28B93CA1009803F064FA51
:100A10000028CDD02021009803F05CFA0500C7D053
:100A20000021681C03F056FA0028C1D00670681C2B
:100A3000FFF7C5FBA16980B2C860A069FFF760FF3E
:100A4000A06932A240F21B11C36806A003F0D8FFD0
:100A5000F8BD0000596F7520696E7075743A2025D5
:100A6000730A0000616461707465725F63616D6533
:100A700072615F636F6E6669672E6370700000005D
:100A80006B657900666163746F7279207265736556
:100A9000743A20256420777269746520746F20454C
:100AA0004550524F4D204F4B200D0A0054696D6543
:100AB0004F6E52656C61790074696D656F6E726519
:100AC0006C61790074696D654F6E52656C61793A3D
:100AD00020256420777269746520746F2045455025
:100AE000524F4D204F4B200D0A00000054696D6598
:100AF00044697361626C65524600000074696D65FB
:100B000064697361626C65726600000074696D658A
:100B100044697361626C6552463A2025642077729D
:100B200069746520746F20454550524F4D204F4BDE
:100B30000D0A000010B5044600206070A070E0703F
:100B40006061207000F028FFE06000F025FF206168
:100B500010BD0000F8B50446574DC4E905124078B1
:100B60004FF47A6601284DD002284AD1012204218F
:100B7000284600F00CFF60690127407820B1A0787A
:100B8000C0B101281BD039E000F006FFE168401A2F
:100B9000B04236D900220421284600F0F8FE002297
:100BA0002021284600F0F3FE6770606943A2982177
:100BB00043787CE0A069FFF799FEA7701EE04848E3
:100BC00003F06AF9B8B1464803F060F905464448B5
:100BD00003F056F9034643A2AB214DA0009503F064
:100BE0000FFF2078401C20703D4803F049F9A060B9
:100BF0003B4803F095F8204602F0D6FF00F0CCFE0B
:100C0000E060F8BD4878002839D00026344803F069
:100C100043F9C8B1324803F039F90646304803F0C9
:100C20002FF903462FA2CB2139A0009603F0E8FE4E
:100C30002B4803F025F9A16906460860A069FFF773
:100C40005FFE274803F06CF800F0A6FE374FF96806
:100C5000401A642806D90221284600F094FE00F0CC
:100C60009BFEF860A069FFF741FEA0690068B042F2
:100C7000C4D101222021284600F089FEBEE700F001
:100C80008BFEE168401AB042BBD9002202212846FF
:100C900000F07DFE00222021284600F078FE022090
:100CA00060700020A070606921A2C021437818A064
:100CB00003F0A6FEA2E70000000C014050524F4393
:100CC0004553535F5441534B5F53544154455F4C1C
:100CD0004541524E494E473A202564200D0A0000F6
:100CE00064080020526563656976656456616C75B9
:100CF000653A2025782052656365697665644269A6
:100D0000746C656E6774683A202578200D0A0000BF
:100D1000616461707465725F63616D6572615F6368
:100D20006F6E6669672E6370700000000800002017
:100D300050524F434553535F5441534B5F535441BB
:100D400054455F434F4E54524F4C3A202564200D7A
:100D50000A0000004178002901D10221417070474A
:100D6000014800F0CDBA00003C0A0020014800F024
:100D7000C7BA0000740A002010B5046863604368B5
:100D8000102B036803D099600068C26010BD9A60A0
:100D90000068C16010BDFEE7012000F005BD4020E5
:100DA00000F002BD06490020C8610648016941F013
:100DB00004010161016941F04001016170470000D7
:100DC0004800002000200240064A0021D161064967
:100DD0000A6942F002020A614861086940F0400075
:100DE000086170474800002000200240044B0022A8
:100DF000DA61044A136943F001031361018070470B
:100E000048000020002002400E49C868C2060E4873
:100E100003D5C26942F00202C261CA68520703D513
:100E2000C26942F00102C261CA69D20707D0C26931
:100E300042F00402C261C86920F00100C8611420B8
:100E4000C8607047002002404800002070B5054689
:100E500000F0A2FD0646114C09E0681C07D025B140
:100E600000F09AFD801BA84201D9032070BDE06804
:100E7000C007F2D1E068800601D52020E060E0687C
:100E8000C00605D4E069C00702D1E068400703D579
:100E9000FFF7BAFF012070BD002070BD00200240A6
:100EA00010B500F017FC002010BD00B585B0002281
:100EB000CDE902010492009204A9684600F0B6FB55
:100EC000002800D0012005B000BD10B500F04CFC9A
:100ED000002010BD10B5002304E000BF10F8014B46
:100EE000CC545B1C9342F9D3084610BD2DE9F04168
:100EF00017460D460646002410E0325929190023F2
:100F0000022000F0F1FB10B10120BDE8F081305962
:100F10002959884201D00220F7E7241DBC42ECD3B6
:100F20000020F2E770470000F8B50025009590F822
:100F30002420AE46012A1ED0012280F824204A68CF
:100F40001F244FF47873072A17D20668776B93FA39
:100F5000A3FCBCFA8CFC521E02FB0CFC04FA0CF441
:100F6000A74393FAA3F3B3FA83F30C685A4394406C
:100F7000274377632DE00220F8BD06680D2A14D2BE
:100F8000376B93FAA3FCBCFA8CFCD21F02FB0CFC5F
:100F900004FA0CF4A74393FAA3F3B3FA83F30C68AF
:100FA0005A4394402743376313E0F76A93FAA3FC4C
:100FB000BCFA8CFC0D3A02FB0CFC04FA0CF4A743BF
:100FC00093FAA3F3B3FA83F30C685A43944027438C
:100FD000F7620A683823072406680A2A14D3F768D8
:100FE00093FAA3FCBCFA8CFC0A3A02FB0CFC04FA50
:100FF0000CF4A74393FAA3F3B3FA83F38C685A4330
:1010000094402743F76012E0376993FAA3FCBCFAD7
:101010008CFC02FB0CFC04FA0CF4A74393FAA3F338
:10102000B3FA83F38C685A439440274337610A68C4
:10103000102A01D0112A20D1124B02689A4217D1EE
:1010400093681B0219D4936843F400039360096802
:10105000102912D10C490D4A0968B1FBF2F101EBDC
:101060008101490000E0491E00910029FBD104E004
:10107000816A41F020018162012580F824E0284640
:10108000F8BD0000002401403C00002040420F0059
:10109000704710B5044600684168890626D5016886
:1010A000890723D5A16AC90603D4A16A41F4007156
:1010B000A1628168C1F34241072910D1E16871B989
:1010C000416821F020014160A06A20F48070A06294
:1010D000A06AC00403D4A06A40F00100A0622046C8
:1010E000FFF7D6FF21686FF01200086020684168A2
:1010F00009062ED5016849072BD5A16AC90603D474
:10110000A16A41F40051A1628168C1F3023107294B
:1011100009D04168490515D48168C1F342410729C6
:1011200010D1E16871B9416821F080014160A06A85
:1011300020F48050A062A06AC00503D4A06A40F0E9
:101140000100A0622046FFF7EDFE21686FF00C0061
:1011500008602068416849060DD50068C0070AD0BC
:10116000A06A40F48030A062204600F09FF8216819
:101170006FF00100086010BD2DE9F04104004FF050
:10118000000514D0A06A002628B9E66284F824601D
:10119000204600F08DF82046FFF75EFBA16A01F0C3
:1011A0001001014304D0A06A40F01000A06277E073
:1011B000A16A21F4885141F00201A1626268E169EB
:1011C00002270A43E16897FAA7F70B46B7FA87F7B1
:1011D000B9400A43A1684FF48077B94208D0012989
:1011E00006D00021D4F814C0BCF1010F02D00AE0EF
:1011F0003946F7E7F3B1A36A43F02003A362E36A39
:1012000043F00103E3622368D3F804C02CF4694C73
:101210004CEA010CC3F804C021688B68DFF884C075
:1012200003EA0C0313438B60A168B94210D0012973
:101230000ED016E04FF4604CA3699CFAACFCBCFAEB
:101240008CFC5B1E03FA0CF30B4343F40061DAE7FA
:101250004FF47001256991FAA1F1B1FA81F16D1E87
:101260008D402168CB6A23F470032B43CB62216845
:1012700089680D4B1940914208D1E662A16A21F0BC
:10128000020141F00101A162BDE8F081A06A20F0F5
:10129000020040F01000A062E06A40F00100E0624D
:1012A0000120F1E7FDF7E1FFFE0E1FFF7047000090
:1012B00000B500680F4985B0884218D10E48816991
:1012C00041F4007181618069694600F40070049006
:1012D0003020009003200190084800F071FA0022AD
:1012E0001146122000F0F2FB122000F0E3FB05B0E3
:1012F00000BD000000240140001002400008014031
:101300002DE9F05FDFF860820446D8F80020DFF8AE
:1013100058B2954D944E944F0068DFF84C92DFF828
:1013200048A20BF1080B1C35303644374FF40061EE
:101330004FF4004C4FF4002E09F158090AF16C0AE1
:10134000584501D1082316E0A84201D1802312E0BC
:10135000B04201D10B460EE0B84201D163460AE02B
:10136000484501D1734606E0504502D14FF40003D1
:1013700001E04FF000631A4231D00268D2431207F5
:101380002DD4026822F0080202602068584501D17D
:10139000082114E0A84201D1802110E0B0420ED013
:1013A000B84201D161460AE0484501D1714606E0E4
:1013B000504502D14FF4000101E04FF00061C8F840
:1013C0000410606B40F001006063042084F8210089
:1013D000002084F82000216B09B12046884762482C
:1013E000D0F800C04FF4806120680A010B044FF46C
:1013F000802E584502D14FF0040816E0A84202D1D1
:101400004FF0400811E0B04201D188460DE0B842EB
:1014100001D1904609E0484501D1F04605E050452C
:1014200002D14FF4800800E098461CEA080F33D040
:10143000D0F800C06FEA0C0C5FEA4C7C2CD4D0F8DA
:1014400000C05FEA8C6C05D4D0F800C02CF0040C0E
:10145000C0F800C02068584501D1042113E0A8421B
:1014600001D140210FE0B0420DD0B84201D1114668
:1014700009E0484501D1714605E0504502D14FF4DD
:10148000800100E0194638484160112084F82100AD
:10149000E16A09B120468847334AD2F800C05B466A
:1014A000206851154FF4005B4FF4003E984202D182
:1014B0004FF0020817E0A84202D14FF0200812E0D6
:1014C000B04201D188460EE0B84201D1D8460AE0C8
:1014D000484501D1F04606E0504502D14FF40018CE
:1014E00001E04FF000781CEA080F3BD0D0F800C0B4
:1014F0006FEA0C0C5FEA8C7C34D4D0F800C05FEA51
:101500008C6C05D4D0F800C02CF0020CC0F800C0E0
:101510002068984201D1022114E0A84201D1202183
:1015200010E0B0420ED0B84201D159460AE0484519
:1015300001D1714606E0504502D14FF4001101E09F
:101540004FF000715160606B6063012084F82100EE
:10155000002084F82000A16A002903D02046BDE8BD
:10156000F05F0847BDE8F09F0000024070B520B171
:1015700090F82110002411B103E0012070BD80F823
:101580002040022180F8211003681A6843F6F071A8
:101590008A43D0E901152943D0E90356354329434D
:1015A0004569294385692943C56929431143196060
:1015B0004463012180F82110002070BD70B50446FD
:1015C00090F82000012823D0012084F82000022078
:1015D00084F821002068056825F001050560204693
:1015E000FFF7CAFB2068016841F002010160206832
:1015F000016841F0040101602068016841F00801C0
:1016000001602068016841F001010160002070BDA7
:10161000022070BD31B500F0BFF9044600F0BCF9FE
:101620000099001B8842F9D338BD00002DE9F0472E
:10163000054626480F460126017E01290FD00121CB
:10164000814601762868DFF888804CF25034022801
:1016500008D0A2462046FFF7F9FBA8B131E00220EE
:10166000BDE8F0872046FFF7F1FB08BB0120FFF73C
:1016700099FB2046FFF7EAFBD8F81010064621F048
:101680000401C8F810101CE04FF0FF303860AC685F
:1016900011E02046FFF798FB5046FFF7D7FBD8F83C
:1016A0001010060021F00201C8F8101001D03C60B3
:1016B00007E004F58064D5E9020100EB8120A04237
:1016C000E7D8002189F818103046C9E74800002003
:1016D000002002400348016941F0800101610020BF
:1016E00070470000002002402DE9F05F07461C48CB
:1016F00088460024017E15461E46012909D0012195
:10170000814601764CF2503A5046FFF79FFB18B1E4
:1017100022E00220BDE8F09F012F02D0022F00D06E
:101720000427D346DFF83CA0220128463146FEF7C5
:10173000FBFC81B208EB4400FFF758FB5846FFF76B
:1017400085FBDAF8102022F00102CAF8102018B93F
:10175000641CE4B2BC42E7D3002289F81820D9E720
:10176000480000200020024005480169090605D50F
:1017700004494160044941600020704701207047DE
:101780000020024023016745AB89EFCD012804D03A
:10179000402806D1034801F015BF0248483002F046
:1017A000C5BA70471C080020044910B50A680242F7
:1017B00002D00860FFF7EAFF10BD000014040140EA
:1017C0002DE9F84FDFF890A100220AF1040B14462E
:1017D00001274FF00F090BF1040E00BF0B6807FA49
:1017E00004F52B40AB4274D1DFF870C14E68A6EB14
:1017F0000C0866452BD00DDC032E34D005DC36B347
:10180000012E19D0022E2FD11BE0112E16D0122E30
:101810002AD119E0B8F5881F19D006DCB8F5803F49
:1018200015D0B8F5801F1FD111E0B8F5001F0ED0FC
:10183000B8F5041F18D10AE0CA6815E0CA68121D7D
:1018400012E0CA6808320FE0CA680C320CE08A68FD
:101850002AB1012A4FF0080203D0456104E00422B6
:1018600002E0056100E00022FF2B01D8064601E0FE
:1018700000F104064FEA840501D9A5F12005D6F848
:1018800000C009FA05F82CEA080C02FA05F54CEA42
:10189000050CC6F800C04D68ED0057D5304DAE6957
:1018A00046F00106AE61AD6924F0030605F00105BE
:1018B00000952C4D06EB050CDCF80850A6074FEA06
:1018C000167809FA08F6B543274EB04202D1002631
:1018D00010E03BE0254EB04201D101260AE0244E43
:1018E000B04201D1022605E0224EB04201D10326CA
:1018F00000E0042606FA08F62E43CCF808604D688E
:10190000DAF80060ED03554601D51E4300E09E4322
:101910002E604D68DBF80060AD035D4601D51E43C7
:1019200000E09E432E604D68DEF80060ED027546D3
:1019300001D51E4300E09E432E604D68AD020E4D62
:101940002E6801D51E4300E09E432E60641C102CBF
:10195000FFF444AFBDE8F88F00040140000011100F
:10196000001002400000014000080140000C01404E
:1019700000100140001401400C0401408068084040
:1019800000D001207047C2684A40C26070470AB167
:10199000016170470904FBE70148006870470000D7
:1019A0000000002010B5040008D02068C168C943B9
:1019B000C90705D1C068C043800701D4012010BD0C
:1019C000607B20B900202073204600F018F8022028
:1019D0006073216845F2555008602068416862686C
:1019E00021F007011143416020688168A2686FF30C
:1019F0000B011143816001206073002010BD70470E
:101A000002480168491C0160704700000000002086
:101A1000074810B5016841F010010160032000F093
:101A200075F8002000F006F800F016F8002010BD50
:101A30000020024010B5044600F052FA4FF47A71CB
:101A4000B0FBF1F000F0FEFD00222146501E00F038
:101A50003DF8002010BD0000154808B5816941F02F
:101A600001018161806900F001000090032000F015
:101A70004DF8002211466FF00B0000F027F800220D
:101A800011466FF00A0000F021F8002211466FF0B5
:101A9000090000F01BF800221146101F00F016F894
:101AA0000022BDE808401146501E00F00FB80000AB
:101AB0000010024000F01F02012191404009800007
:101AC00000F1E020C0F8001170470000F0B40E4BA8
:101AD0001B680C46C3F30223C3F10705042D00D98C
:101AE0000425191D072901D2002300E0DB1E012671
:101AF00006FA05F1491E214099409E40761E164087
:101B00003143F0BC01F038BD0CED00E0064900F0B7
:101B1000070208684FF6FF03184040EA0220034A14
:101B200010430860704700000CED00E00000FA056B
:101B30002DE9F84305460078444CC00771D0E069B0
:101B400040F08050E061E069414E00F0805000902C
:101B5000306840F480703060FFF71EFF074604E0F5
:101B6000FFF71AFFC01B642831D83068C005F7D5CD
:101B7000206AA98800F4407001F44071884250D076
:101B8000206A0126310491FAA1F2B2FA82F293009E
:101B9000304A20F440701344C3F8006491FAA1F174
:101BA000B1FA81F102EB81010023C1F80034206217
:101BB000800730D5FFF7F0FEB046074641F288397E
:101BC000022607E0FFF7E8FEC11B494502D90320C2
:101BD000BDE8F88396FAA6F0B0FA80F040F0400035
:101BE000B8EB501F01D120680BE096FAA6F0B0FACE
:101BF00080F040F04000B6EB501F01D1206A00E0B9
:101C0000606A96FAA6F2B2FA82F202F01F0208FAAD
:101C100002F10842D6D0206A696820F44070084377
:101C200020622878800705D56068A96820F44040C4
:101C3000084360602878C00605D56068E96820F42C
:101C40008000084360600020C2E7000000100240EE
:101C500000700040000042422DE9F047DFF8789222
:101C600005460E46D9F80000022300F007070120C0
:101C700041044206994C41F28838B74271D2D9F8F2
:101C800000C02CF0070C4CEA060CC9F800C0D9F8CB
:101C9000007007F00707B7426FD12E78B60705D559
:101CA0006668AF6826F0F0063E4366602E78F60759
:101CB00056D06E68012E0BD0022E1ED093FAA3F1DF
:101CC000B1FA81F141F02001490924D0216823E0D3
:101CD00091FAA1F2B2FA82F242F02002520901D046
:101CE000226800E0626A91FAA1F1B1FA81F101F093
:101CF0001F018840024240D017E092FAA2F1B1FAE7
:101D000081F141F02001490901D0216800E0616AB8
:101D100092FAA2F202E0616A93FAA3F2B2FA82F2B4
:101D200002F01F029040014227D0606820F00300BB
:101D300030436060FFF730FE06466868012809D02E
:101D40000228474613D01EE0FFF726FE801BB8424C
:101D500001D992E047466068C0F381000128F3D1C1
:101D6000A1E015E0FFF718FE801BB84273D8606849
:101D7000C0F381000228F5D195E092E0FFF70CFE58
:101D8000801BB84279D8606810F00C0FF6D18AE059
:101D90002F78BF0707D56768D5F808C027F0F00788
:101DA00047EA0C0767602F78FF076DD06F68012F37
:101DB0000BD0022F1ED093FAA3F1B1FA81F141F0BA
:101DC0002001490924D0216823E091FAA1F2B2FA56
:101DD00082F242F02002520901D0226800E0626AD9
:101DE00091FAA1F1B1FA81F101F01F01884002429C
:101DF00057D017E092FAA2F1B1FA81F141F0200137
:101E0000490901D0216800E0616A92FAA2F202E079
:101E1000616A93FAA3F2B2FA82F202F01F029040D2
:101E200001423ED0606820F0030038436060FFF755
:101E3000B3FD07466868012807D0022811D01FE0CB
:101E4000FFF7AAFDC11B414517D86068C0F38100A8
:101E50000128F5D118E010E0FFF79EFDC11B4145B8
:101E60000BD86068C0F381000228F5D10CE000BFF8
:101E7000FFF792FDC11B414502D90320BDE8F08761
:101E8000606810F00C0FF3D1D9F8001021F00701B1
:101E90003143C9F80010D9F8000000F00700B04243
:101EA00001D00120EAE72878400705D56068E96895
:101EB00020F4E060084360602878000706D5606879
:101EC000296920F4605040EAC10060600020FFF7FB
:101ED000B1FD0020D2E700000020024000100240C7
:101EE00000B500F043F808494968F02292FAA2F2DE
:101EF00001F0F001B2FA82F2D140044A515CC840CC
:101F00000349086000BD000000100240444A000878
:101F10003C00002000B5FFF7E3FF074949684FF494
:101F2000E06292FAA2F201F4E061B2FA82F2D140E8
:101F3000024A515CC84000BD00100240444A0008FB
:101F400000B5FFF7CDFF074949684FF4605292FA98
:101F5000A2F201F46051B2FA82F2D140024A515C1D
:101F6000C84000BD00100240444A000810B51AA342
:101F700085B00FCB8DE80F001BA01C4B00680490B0
:101F80005A681B4802F00C01042902D0082902D02B
:101F9000401005B010BD4FF4701494FAA4F402F48C
:101FA0007011B4FA84F4E140D2031DF801100FD58A
:101FB0005A684FF4003393FAA3F302F40032B3FAF1
:101FC00083F3DA4004AB9A5CB0FBF2F04843E0E7FD
:101FD00008484843DDE70000020304050607080936
:101FE0000A0B0C0D0E0F1010010200000010024031
:101FF0000024F40000093D002DE9F84F0546007863
:10200000FA4EC0074FF0010425D070686704C0F392
:102010008100012807D07068C0F3810002281BD11D
:102020007068C00318D597FAA7F0B0FA80F040F0B6
:102030002000400901D0306800E0706A97FAA7F1EB
:10204000B1FA81F101F01F0104FA01F1084202D056
:102050006868002876D081E0306820F480303060F5
:10206000306820F480203060FFF796FC804605E061
:10207000FFF792FCA0EB080064287CD897FAA7F041
:10208000B0FA80F040F02000400901D0306800E054
:10209000706A97FAA7F1B1FA81F101F01F0104FA11
:1020A00001F10842E4D16868B0F5803F0BD010B16F
:1020B000B0F5A02F11D0306820F480303060306847
:1020C00020F4802002E0306840F48030306068689E
:1020D00020B3FFF761FC80460AE0306840F48020BE
:1020E0003060F0E7FFF758FCA0EB08006428C4D884
:1020F00097FAA7F0B0FA80F040F02000400901D034
:10210000306800E0706A97FAA7F1B1FA81F101F046
:102110001F0104FA01F10842E4D01FE0FFF73CFC84
:10212000804605E0FFF738FCA0EB08006428A4D83F
:1021300097FAA7F0B0FA80F040F02000400902D0F2
:10214000306801E0B7E0706A97FAA7F1B1FA81F15F
:1021500001F01F0104FA01F10842E3D12878DFF809
:10216000908280074FF000094FF002075AD570683F
:1021700010F00C0F00E07AE14FF0F80B07D0706818
:10218000C0F3810002281BD17068C00318D497FAED
:10219000A7F0B0FA80F040F02000400901D030688C
:1021A00000E0706A97FAA7F1B1FA81F101F01F011E
:1021B00004FA01F108422AD0286901287BD126E0DF
:1021C000286980B394FAA4F0B0FA80F048F820406F
:1021D000FFF7E2FB824605E0FFF7DEFBA0EB0A001B
:1021E000022884D897FAA7F0B0FA80F040F02000D7
:1021F000400901D0306800E0706A97FAA7F1B1FA9F
:1022000081F101F01F0104FA01F10842E4D03068C5
:102210009BFAABF26969B2FA82F220F0F8009140C1
:102220000843306025E0FFE794FAA4F1B1FA81F1A8
:1022300048F82190FFF7B0FB824605E0FFF7ACFBC2
:10224000A0EB0A000228CCD897FAA7F0B0FA80F0E9
:1022500040F02000400901D0306800E0706A97FA31
:10226000A7F1B1FA81F101F01F0104FA01F108426E
:10227000E4D1287800076ED5A869B8B394FAA4F021
:10228000B0FA80F008EB8000C0F88044FFF784FBD0
:10229000824605E0FFF780FBA0EB0A000228A0D8E9
:1022A00097FAA7F0B0FA80F040F06000B4EB501F4E
:1022B00002D130680CE096E197FAA7F0B0FA80F00E
:1022C00040F06000B7EB501F01D1306A00E0706A47
:1022D00097FAA7F1B1FA81F101F01F0104FA01F2B6
:1022E0001042D7D00120FFF795F934E0FFE794FAC8
:1022F000A4F1B1FA81F108EB8101C1F88094FFF7F4
:102300004BFB824606E000BFFFF746FBA0EB0A004E
:10231000022898D897FAA7F0B0FA80F040F0600051
:10232000B4EB501F01D130680BE097FAA7F0B0FA78
:1023300080F040F06000B7EB501F01D1306A00E040
:10234000706A97FAA7F1B1FA81F101F01F0104FA5E
:1023500001F21042D8D12878400770D5F06940F0DA
:102360008050F061F069DFF88CB000F08050009090
:10237000DBF8001041F48071CBF80010FFF70CFB84
:10238000824605E0FFF708FBA0EB0A0064286ED840
:10239000DBF80000C005F5D5306A20F0010030629E
:1023A000306A20F004003062FFF7F6FA834641F20B
:1023B000883A05E0FFF7F0FAA0EB0B01514556D83B
:1023C00097FAA7F0B0FA80F040F04000B4EB501F4D
:1023D00001D1306811E097FAA7F0B0FA80F040F030
:1023E0004000B7EB501F07D1306A06E000100240F2
:1023F0000000424200700040706A97FAA7F1B1FAFB
:1024000081F101F01F0104FA01F10842D2D1E8681C
:1024100001280AD008B1052812D0306A20F0010046
:102420003062306A20F0040002E0306A40F00100BF
:102430003062E86898B3FFF7AFFA83460CE05AE0E1
:10244000306A40F004003062EFE700BFFFF7A4FA03
:10245000A0EB0B0151450AD897FAA7F0B0FA80F02B
:1024600040F04000B4EB501F02D130680CE09DE01A
:1024700097FAA7F0B0FA80F040F04000B7EB501F99
:1024800001D1306A00E0706A97FAA7F1B1FA81F1E0
:1024900001F01F0204FA02F10842D7D02BE0FFE757
:1024A000FFF77AFA834605E0FFF776FAA0EB0B0117
:1024B00051457BD897FAA7F0B0FA80F040F0400081
:1024C000B4EB501F01D130680BE097FAA7F0B0FAD7
:1024D00080F040F04000B7EB501F01D1306A00E0BF
:1024E000706A97FAA7F1B1FA81F101F01F0204FABC
:1024F00002F10842D8D1E86980B37168C1F3810163
:10250000022970D04FF080714F000228484609D050
:1025100091FAA1F1B1FA81F148F82100FFF73CFAF4
:10252000054669E0894691FAA1F1B1FA81F1C24606
:1025300048F82100FFF730FA804605E0FFF72CFA53
:10254000A0EB0800022854D897FAA7F0B0FA80F060
:1025500040F02000400902D0306801E061E0706A7C
:1025600097FAA7F1B1FA81F101F01F0104FA01F124
:102570000842E3D1286AB0F5803F05D17068A968A8
:1025800020F4003008437060D5E908010843716801
:1025900021F474110843706099FAA9F0B0FA80F040
:1025A0004AF82040FFF7F8F9054606E021E000BFB1
:1025B000FFF7F2F9401B02281BD897FAA7F0B0FAF0
:1025C00080F040F02000400901D0306800E0706ADF
:1025D00097FAA7F1B1FA81F101F01F0104FA01F1B4
:1025E0000842E5D01DE01EE0FFF7D6F9401B0228A7
:1025F00002D90320BDE8F88F97FAA7F0B0FA80F06F
:1026000040F02000400901D0306800E0706A97FA7D
:10261000A7F1B1FA81F101F01F0104FA01F10842BA
:10262000E2D10020E6E70120E4E74FF0E0210428B2
:10263000086903D020F004000861704740F00400EE
:10264000FAE7704710B5401EB0F1807F01D301203A
:1026500010BD4FF0E02460610F21601700F08CFF87
:102660000020A06107202061002010BD10B5FFF7F9
:10267000E8FF10BD7047704730B590F83820012A48
:1026800020D0012280F83820022380F839300368F6
:102690005C6824F070045C6003685C680D682C431F
:1026A0005C6003689C6824F080049C6003689C68FC
:1026B00049680C439C6080F83920002180F838106C
:1026C000084630BD022030BD10B5040003D094F898
:1026D000390010B107E0012010BD002084F8380057
:1026E000204600F00DF8022084F83900211D2068F2
:1026F00000F0E6FF012084F83900002010BD000042
:1027000008B5114A01681148914208D1816941F424
:1027100000618161806900F40060009008BD0C4A8E
:102720009142FBD1C16941F00401C161C06900223D
:1027300000F00400009011461E20FFF7C7F9BDE825
:1027400008401E20FFF7B6B9002C014000100240DF
:10275000000800400168CA6842F00102CA600068CF
:10276000016841F0010101600020704770B5044626
:1027700090F83800012817D0012584F8385002203D
:1027800084F839002068826822F0770222F47F42C0
:1027900082600868502837D00DDC202859D005DC2D
:1027A00088B3102841D151E0022070BD302853D0A9
:1027B00040283AD13FE060282ED070280BD0B0F5E9
:1027C000805F03D0B0F5005F2FD110E020688168F2
:1027D00021F0070115E0CB68D1E90121206800F064
:1027E000A1FF2168886840F0770088601DE0CB6811
:1027F000D1E90121206800F095FF2068816841F44B
:102800008041816011E01EE0CA684968206800F0DC
:102810009BFF5021206806E0CA684968206800F0E4
:10282000A4FF6021206800F087FF84F83950002061
:1028300084F8380070BDCA684968206800F084FFD9
:1028400040212068EFE700212068ECE71021206894
:10285000E9E720212068E6E730212068E3E77047B8
:1028600070B50446006801694FF00005C943890747
:1028700015D4C168C943890711D4E91E016101203B
:102880002076206880698007204602D0FFF7E7FFA6
:1028900004E000F098F8204600F096F825762068CD
:1028A0000169C943490717D4C168C943490713D40B
:1028B0006FF004010161022020762068806910F425
:1028C000407F204602D0FFF7CAFF04E000F07BF80B
:1028D000204600F079F8257620680169C943090788
:1028E00016D4C168C943090712D46FF00801016109
:1028F000042020762068C0698007204602D0FFF7B8
:10290000AEFF04E000F05FF8204600F05DF82576A9
:1029100020680169C943C90617D4C168C943C906FB
:1029200013D46FF010010161082020762068C0697F
:1029300010F4407F204602D0FFF791FF04E000F042
:1029400042F8204600F040F8257620680169C94326
:10295000C90708D1C168C943C90704D1891E0161EB
:10296000204600F033F820680169C943090609D4FC
:10297000C168C943090605D46FF080010161204692
:10298000FFF778FE20680169C943490609D4C16888
:10299000C943490605D46FF040010161204600F0AB
:1029A0001DF820680169C94389060BD4C168C94371
:1029B000890607D46FF0200101612046BDE8704010
:1029C000FFF759BE70BD704770470000024988424A
:1029D00001D101F0F3BF7047F40800207047704741
:1029E00038B5044600680168C26811F0010F02F4AE
:1029F000807204D01AB1E16B41F00101E16301681A
:102A0000C1F34002416901F0010122B119B1E26B49
:102A100042F00402E2630268C2F3800222B119B1FB
:102A2000E26B42F00202E2630268C2F3C00222B12A
:102A300019B1E16B41F00801E1630168C068C1F3BD
:102A4000401100F0200019B110B1204600F0EAFE5C
:102A500020680168C068C1F3C01100F0800019B19E
:102A600010B1204600F0A2FF21680868CA68C0F3D0
:102A7000801002F04002012570B16AB1CA68204698
:102A800022F04002CA6094F83910322911D080F83F
:102A9000395000BF00F0ACFAE06B002808D0206885
:102AA00001684068009084F839502046FFF797FF8E
:102AB00038BD222180F83910ECE770B5040004D04D
:102AC00094F83900002510B106E0012070BD84F8AB
:102AD0003850204600F020F8022084F839002068A1
:102AE000C16821F40051C160204600F0EFFE20686B
:102AF000016921F4904101612068416921F02A01B6
:102B000041612068C16841F40051C160E563012062
:102B100084F83900002070BDF0B50646494F0368BF
:102B20000024494902200322484D85B0BB4220D1F0
:102B30008B6943F480438B618969039201F480417E
:102B400004914FF49051CDE9001069462846FEF7F4
:102B500037FE4FF44060CDE90004694628460294F0
:102B6000FEF72EFE002211462520FEF7AFFF25209E
:102B700020E0374FBB4221D1CB6943F40033CB6116
:102B8000C969039201F4003104910421CDE90010D8
:102B900069462846FEF714FE0820CDE90004694680
:102BA00028460294FEF70CFE002211462620FEF76E
:102BB0008DFF2620FEF77EFF05B0F0BD254DAB4210
:102BC000FAD1CB6943F48023CB61C969039201F444
:102BD000802104912915CDE900101F4D6946284632
:102BE000FEF7EEFDE814CDE900046946284602949C
:102BF000FEF7E6FD1A4D1948802701C5102091C542
:102C0000174845F810496C61AC61EC61FEF7AEFC09
:102C100035636E62124D114838351430C5E9000431
:102C2000C5E902472C616C61AC612846EC61FEF796
:102C30009DFC75630022114627206E62FEF746FF59
:102C40002720B7E70038014000100240000801408B
:102C50000044004000480040000C01401C000240BD
:102C60003C0A00202DE9F047044690F839009946C7
:102C70000D46012801D0122858D12DB322B394F863
:102C80003800012852D0012684F838600027E76315
:102C900094F8390012281AD05FF0220084F8390025
:102CA000A285E2854FF48058E08D4B46401EE085BA
:102CB000A0684FF0000240454FF02001204616D199
:102CC00000F0A7FEB0B904E00120BDE8F087322093
:102CD000E4E7206900282068406803D0C1B225F8E5
:102CE000011B12E0C0F3080125F8021B0DE000F003
:102CF00090FE08B10320E8E72069002820684068BA
:102D000001D000F07F0005F8010BE08D0028CBD149
:102D100094F83900322805D084F8396084F8387086
:102D20000020D2E7122084F83900F7E70220CCE730
:102D300070B5044690F83900012801D0122832D12C
:102D400069B362B394F8380001282CD0012084F8CC
:102D50003800A162A2850025E56394F839001228A5
:102D60001FD0222084F83900636B10489862636B8F
:102D70000F48D862636B0F48186308461346666BAA
:102D8000216802463046091DFEF718FC206841699B
:102D900041F04001416184F83850002070BD0120AD
:102DA00070BD3220DEE7022070BD0000AD370008A4
:102DB000E33700088F37000890F83930012B01D035
:102DC000122B2CD139B332B390F83830012B26D0E6
:102DD000012380F8383081628285C2850021C16379
:102DE00090F83920122A18D05FF0220280F839209A
:102DF00080F838100168CA6842F48072CA600168BD
:102E00004A6942F001024A610068C16841F020014C
:102E1000C16000207047012070473222E6E702209F
:102E2000704700000349884202D1006C00F08DB960
:102E300070470000F8090020704700002DE9F047B6
:102E4000044690F8390099460D46012801D0222801
:102E500058D12DB322B394F83800012852D001265E
:102E600084F838600027E76394F8390022281AD0E4
:102E70005FF0120084F83900A284E2844FF4805895
:102E8000E08C4B46401EE084A0684FF000024045B5
:102E90004FF08001204613D100F0BBFD08BB04E0D9
:102EA0000120BDE8F0873220E4E728882168C0F3DC
:102EB00008004860206908B16D1C08E0AD1C06E000
:102EC00000F0A7FD68B9216815F8010B4860E08C97
:102ED0000028D5D14B4600224021204600F099FD24
:102EE00008B10320DDE794F83900322806D084F8D1
:102EF000396000BF84F838700020D2E7222084F8BF
:102F00003900F7E70220CCE770B5044690F83900A5
:102F1000012801D0222836D181B37AB394F8380041
:102F2000012830D0012084F838002162A284E28494
:102F30000025E56394F83900222822D05FF01200C2
:102F400084F83900236B11489862236B1048D862CB
:102F5000236B1048186326681346321D206BFEF75A
:102F60002DFB21686FF0400008602068416941F046
:102F70008001416184F83850002070BDFFE70120D6
:102F8000FBE73220DCE70220F7E70000ED3700081E
:102F90001B3800088F37000890F83930012B01D01A
:102FA000222B22D1E9B1E2B190F83830012B1CD0AC
:102FB000012380F8383001628284C2840021C16319
:102FC00090F83920222A0ED05FF0120280F83920C2
:102FD00080F838100068C16841F08001C1600020AD
:102FE0007047012070473222F0E70220704700004E
:102FF0000349884202D1006C00F04DB970470000CF
:10300000F80900207047FEE710B504464FF45571EB
:10301000FDF7A1F804F54170BDE8104000F024B8B8
:103020007FB5002812D0002910D0C0E9D2104FF48B
:103030008073002500F20114CDE90034CDE902359A
:10304000431C092200F5417000F04FF87FBD0028B5
:1030500007D0D0F84813002903D000F5417000F0E4
:10306000B3B87047FEF7D6BA10B5044600F006F8BC
:1030700050212046FDF76FF8002010BD00F066BA21
:103080002DE9F04115460E4604004FF0010729D006
:10309000606C38B3217811F0180F19D0204600F079
:1030A00034F82968814200D2084600210A460BE024
:1030B000D4E90973DB5D7354636A5B1C6362E76A7E
:1030C000BB4200D16262491C8142F1D3286008E012
:1030D000490707D5298801238AB23146FFF7C2FD87
:1030E00000B900273846BDE8F081F0B50028DDE9D9
:1030F0000754DDE9057607D0027041640864C464B2
:10310000C0E90437C0E90A65F0BD10B50021D0B1AF
:10311000426CC2B10378DC0602D5026AC16A0BE0D8
:103120001B0710D5526BC16A126852688A1AB2FB2B
:10313000F1F301FB13220262406A0A44101AB0FB49
:10314000F1F201FB1201084610BD70B5044600788B
:103150004FF00005C10615D5D4E90801401C88428E
:1031600007D0E26A904200D119B12062904200D1AA
:103170002562216AA06A01220144606CBDE87040AA
:10318000FFF71ABE000706D5A08DA16A82B2606C57
:10319000FFF7CEFD256270BD002814D0416C0029D8
:1031A00011D00278D30601D5016A0BE012070AD5C7
:1031B000496BC26A09684968511AB1FBF2F302FB14
:1031C000131101624162704730B4002815D0436C7E
:1031D000002B12D0816A00290FD00278D40604D5C2
:1031E00030BC01221846FFF7E7BD120705D5808DD8
:1031F00030BC82B21846FFF79BBD30BC70472DE94A
:10320000F0411646884604004FF0010540D0606C3E
:1032100070B3B8F1000F3BD021788A072FD000257A
:10322000012715E0A068E2680146401C904214D0D6
:103230006369984200D182B1236918F80520A06023
:103240005A546169A0686D1C884201D10020A060B9
:10325000B542E7D3E06960B119E0E06920B92046E2
:1032600001F0FCFA00B9E7610120FFF7FBFEEFE790
:103270000EE0204601F0F2FA48B9E76107E049079D
:1032800006D5B2B201234146FFF7D8FD00B90025AB
:103290002846BDE8F08110B50446C068A169014424
:1032A0000020E160A0616269914200D1E060D4E950
:1032B00002128A4204D02046BDE8104001F0CEBA86
:1032C000E061606840F008006060E26C002A03D0B2
:1032D000C1B220469047606010BD00003EB50D4869
:1032E00000240B498460C4604461016001250561CC
:1032F0004FF460214460C161FDF73EFF0420CDE939
:103300000005694602940348FDF70EFE3EBD00002D
:1033100000240140300900200D4808B5416941F002
:10332000010141614069002200F001000090114656
:103330000C20FEF7CBFB0C20FEF7BCFB0022114655
:103340000D20FEF7C3FBBDE808400D20FEF7B2BB21
:10335000001002402DE9F0433F4885B0816941F0FB
:1033600010018161816901F010010491816941F0CE
:1033700020018161816901F020010491816941F09E
:1033800004018161816901F004010491816941F0C6
:10339000080181618069002400F0080004904FF466
:1033A0008040CDE90004DFF8B490694648460294B5
:1033B000FEF706FA4FF400470126CDE90076022514
:1033C000694648460395FEF7FBF9412000902448E2
:1033D000CDE90104DFF88C8069464046FEF7F0F93C
:1033E000CDE90056694640460395FEF7E9F94FF4EA
:1033F000C070CDE90004694640460294FEF7E0F94A
:1034000040F2B6340395184DCDE90046694628468A
:10341000FEF7D6F9002239464846FEF7B8FA0022F0
:1034200002214046FEF7B3FA002221462846FEF765
:10343000AEFA002201210620FEF748FB0620FEF727
:1034400039FB002211461720FEF740FB1720FEF73C
:1034500031FB05B0BDE8F0830010024000100140D0
:103460000000311000080140000C014005480449EB
:1034700001600021416040F6FF718160FEF792BA61
:10348000003000406009002010B50F4886B00D499B
:103490000024C0E900144FF6FF71C0E90241046145
:1034A0004461FFF711F94FF48050009069460648D7
:1034B000FFF75CF9049404A903480594FFF7DCF8CE
:1034C00006B010BD002C01407C08002010B511484A
:1034D00086B00F4901601049104A00240968B1FB09
:1034E000F2F1491EC0E901140A21C0E90314FFF7F3
:1034F000EBF84FF48050009069460648FFF736F924
:10350000049404A903480594FFF7B6F806B010BD6B
:1035100000080040F40800203C00002040420F005A
:10352000094808490C2201604FF4E1314160002153
:103530008160C160C0E904129201C0E90621FFF771
:10354000BCBA000000380140700900200848074953
:1035500001604FF4E1314160002181600C22C160C3
:10356000C0E904128161C161FFF7A7BA00480040B9
:10357000F8090020FEE770470907090E002806DA5F
:1035800000F00F0000F1E02080F8141D704700F1FA
:10359000E02080F80014704710B5040008D018210E
:1035A000FCF7D9FD002020702075204600F008F8B7
:1035B00010BD000040210148FEF7E0B900080140BD
:1035C000704770470178002902D04168491C41606A
:1035D000704710B50446007801280DD002280AD1A2
:1035E00000216068616080B12046FFF7E3FF6070F2
:1035F00000F033F8A06010BD60680028FBD000F038
:103600002CF8A0600220207010BDA06800F01FF808
:10361000C828F9D900F021F8A0602046FFF7CAFFBA
:1036200060700146012020702269002AECD02046FB
:10363000BDE81040104710B5040007D0FFF7C1FFE8
:10364000012020702046FFF7B5FF607010BD10B557
:103650000446FEF7A1F9001B10BDFEF79DB910B599
:10366000FEF7CEF9BDE81040FFF700B80D4801683D
:1036700041F00101016041680B4A1140416001685D
:103680000A4A11400160016821F48021016041680B
:1036900021F4FE0141604FF41F0181600449C00321
:1036A00008607047001002400000FFF8FFFFF6FEC0
:1036B00008ED00E00148FFF7D3B80000F40800204F
:1036C000F0B50268144B154C154D4FF080479842E9
:1036D00005D0B84203D0A04201D0A84203D122F0C5
:1036E00070064A683243984205D0B84203D0A042DF
:1036F00001D0A84203D122F44074CA682243026078
:103700008A68C2620A688262984201D109690163CB
:1037100001214161F0BD0000002C01400004004087
:103720000008004010B5846842EA032224F47F4474
:103730000A432243826010BD826822F070020A436D
:1037400042F007018160704710B5036A046A24F0F3
:1037500001040462846924F0F00444EA021423F0B2
:103760000A020A438461026210BD10B5036A23F0A5
:10377000100303628369046A23F4704343EA02324C
:1037800024F0A00343EA01118261016210BD10B56B
:10379000406A0021C185C184012180F83910C16BC4
:1037A00041F01001C163FFF71AF910BD10B50146D1
:1037B000406A0968096889060ED40021C18501683C
:1037C0004A6922F040024A6190F83910322906D045
:1037D0005FF0010180F83910FFF724FB10BD1221C2
:1037E000F8E710B5406AFFF727FB10BD10B501469A
:1037F000406A0968096889060CD40021C1840168FF
:103800004A6922F080024A610068C16841F04001C3
:10381000C16010BDFFF7ECFB10BD10B5406AFFF7AB
:10382000F1FB10BD10B590F83910222903D03229D0
:1038300001D0022010BD8168B1F5805F11D001690F
:10384000002901681FD0496801F07F03816A4A1C82
:1038500082620B70C18D491E0904090CC18518D004
:1038600030E00269816A002A0268526805D0D2B24B
:103870000A80816A491C8162ECE7C2F308020A806F
:10388000816A891CF7E74A68816A4B1C83620A7067
:10389000E0E70168CA6822F02002CA6090F8391097
:1038A000322911D00168CA6822F48072CA600168A6
:1038B0004A6922F001024A615FF0010180F8391083
:1038C000FFF7B0FA002010BD1221F7E72DE9F04113
:1038D000044600680169E26821F440511143016126
:1038E0002169A0680843616908432168CA6841F2F8
:1038F0000C639A430243CA6020684169A26921F4BB
:103900004071114341612849206864254FF0320815
:10391000884218D1FEF714FB00EBC00101EB001048
:1039200061688900B0FBF1F0B0FBF5F6FEF708FB2B
:1039300000EBC00101EB001061688900B0FBF1F7FA
:10394000FEF7FEFA17E0FEF7E5FA00EBC00101EB27
:10395000001061688900B0FBF1F0B0FBF5F6FEF7EE
:10396000D9FA00EBC00101EB001061688900B0FBDF
:10397000F1F7FEF7CFFA00EBC00101EB0010616830
:103980008900B0FBF1F0B0FBF5F06FF0180148438F
:1039900007EB800108EB0110B0FBF5F0216866F33E
:1039A0001F108860BDE8F0810038014090F83910A0
:1039B000122903D0322901D0022070478168B1F565
:1039C000805F016A0BD04A1C02620268097851606C
:1039D000C18C491E0904090CC1840ED017E0098866
:1039E0000268C1F30801516001690029016A02D02F
:1039F000491C0162ECE7891CFBE70168CA6822F0F8
:103A00008002CA600068C16841F04001C1600020C6
:103A100070472DE9F0471D4690460E460446FDF7D7
:103A2000BBFF07465FEA08004FF000094FF00108AE
:103A300008D030E0681C05D095B1FDF7ADFFC01B84
:103A4000A8420DD82068006836EA0000F2D127E0CD
:103A5000681C20D025B1FDF79FFFC01BA8421AD9D2
:103A60002068C16821F08001C1602068C16821F030
:103A70002001C1602068C16821F48071C1602068A4
:103A8000416921F00101416184F8398084F838905E
:103A90000320BDE8F0872068006836EA0000D7D030
:103AA0000020F6E70148FEF79BBF000070090020E8
:103AB0000148FEF795BF0000B40900200148FEF759
:103AC0008FBF0000F8090020FEE70021016041607F
:103AD0008160C160704710B594B0092000904FF428
:103AE00080304100CDE90101012102240691CDE998
:103AF00007404FF4E01009906846FEF77DFA0F206A
:103B0000CDE90A0400206102CDE90C010E900221EA
:103B10000AA8FEF7A1F8A00311900F940FA8FEF7D2
:103B200007F8FEF7DDF94FF47A71B0FBF1F0FEF71C
:103B300089FD0420FEF779FD00221146501EFDF795
:103B4000C5FF14B010BD000010B50446C0680028C1
:103B50000CD107A236210CA000F052FF6068FDF7DF
:103B6000F9F82068FFF767FD0120E06010BD000054
:103B70007374617274206D6964646C65206C696E25
:103B80006B200D0A00000000616461707465725F53
:103B900063616D6572615F6D6964646C655F636FBD
:103BA00072652E637070000070B52C4D04468069FC
:103BB00028612178002934D0E178294E91B3012978
:103BC0002FD1FDF7E9FE2169401AA169896801EB4F
:103BD0004102C2EBC111B0EBC10F22D9002210216A
:103BE0003046FDF7D4FE012220213046FDF7CFFEFE
:103BF000A868401CA860A169CA688968C2EB021263
:103C00009200B2FBF1F1814208D800220221304635
:103C1000FDF7BDFE0020E070A8602070FDF7BCFE3F
:103C2000206170BDFFE70068A1688842F9D10DA24C
:103C3000682111A000F0E4FE012210213046FDF7BA
:103C4000A6FE012202213046FDF7A1FE002220211E
:103C50003046FDF79CFE0120E070DFE70800002001
:103C6000000C014072656365766963652074727546
:103C7000653A3A200D0A0000616461707465725FF4
:103C800063616D6572615F636F6E6669672E6370F5
:103C90007000000010B504460068FFF79AFCD4E9F4
:103CA0000010A268BDE81040FCF754BF10B5C4680E
:103CB000002C0AD1002808D0002906D0002A04D000
:103CC000002B02D08360C0E9002110BD4068FCF7E2
:103CD0003DBE401A00D54042704700004A1E062AE9
:103CE00000D30121054A01EB410102EB81010C39AE
:103CF0000C300EC980E80E0070470000544A0008DE
:103D0000016000F001B800000068401C05D00349C4
:103D1000002048608860FDF73FB870471C00002015
:103D200001490020486070471C0000202DE9F04741
:103D300000F036FE1A4C0746DFF86890A0694FF095
:103D400000083E1A41F2F810864219D9D9F800004D
:103D5000301AC730B0F5C77F0FD8E069401CE0616A
:103D600002280AD101252846616900F01DF810B922
:103D70006D1C062DF7D9C4F81C80C4F8148006E029
:103D80006069432803D3C4F81480C4F81C806069B8
:103D900049F82060401CC4E90507BDE8F087000031
:103DA0001C000020AC0300202DE9F35F8B46009837
:103DB000304900EB400001EB8000002650E9027022
:103DC0008246C7F30720F9B2884200D808462A493C
:103DD0000968B1FBF0F52948006868436421B0FB2D
:103DE000F1F9CAF3074008B1022400E00124ABF165
:103DF00001082CE02048C7F307417600694350F8DA
:103E00002400FFF766FF484509D21B48390E00EB36
:103E1000840069434068FFF75CFF484516D31648A5
:103E20000AF0FF01694350F82400FFF752FF4845AC
:103E30001DD21148CAF3072100EB84006943406892
:103E4000FFF747FF484512D246F00106A41C44453F
:103E5000D0D3BBF1070F07D908484FEA5801466095
:103E6000C0E90215009901610120BDE8FC9F002016
:103E7000FBE70000544A0008AC0300201C000020AF
:103E800001484068704700001C000020014880681D
:103E9000704700001C00002002484068002800D045
:103EA000012070471C00002030B504464FF0FF355C
:103EB0000A20C4E9015001212046FFF70FFF044901
:103EC0003C202560086000204860204630BD00008E
:103ED0001C000020FCF75CB9FCF748B937B5144664
:103EE0000846064B6A46214600F0D6F80446694665
:103EF000002000F068FC20463EBD0000C7470008D7
:103F0000004870474000002002E008C8121F08C1A6
:103F1000002AFAD170477047002001E001C1121F4A
:103F2000002AFBD1704700000148FFF7BDBF000029
:103F3000640800202DE9FF5FDDE90220010DDDF8B6
:103F400038B0024318D044F61050A1F2FF3141437B
:103F50000D140F98012820D0A5EB0B00401C5FEA40
:103F6000000A4FF00004474EDFF81C91A04650466F
:103F700016D5CAF1000728E00F98012443A20128B2
:103F800008D0002100980F9BC0E90021C0E902433E
:103F9000BDE8FF9F6FEA0B01F4E7CBF10000DEE71D
:103FA000074612E0F80707D0224633464046494606
:103FB000FCF748FA804689462246334610461946A1
:103FC000FCF740FA04460E467F10002FEAD1DDE9E7
:103FD0000201BAF1000F42464B4602DAFCF732FA10
:103FE00001E0FCF7A1FA04460E460022284BFCF73C
:103FF00023FB03D84FF0FF30014607E00022254B9A
:1040000020463146FCF777F9FCF7FDFA102409E069
:10401000002C0ADB0A220023FCF704F9019B303252
:104020001A55641E50EA0102F2D1641C019AC4F1CF
:10403000110314440F9A012A03D0012208430DD121
:104040000AE0084304D000204FF0110B0F9080E7E6
:10405000A3EB0B056D1E0DE05B4504DD4FF0000288
:1040600005F1010504E003DA4FF00002A5F10105B6
:10407000002AECD000980F99C0E90231C0E9004550
:1040800086E70000000024400000F03F3000000000
:104090000000F0430000E03F2DE9FF4F95B09B4644
:1040A0008946064600250FE2252877D100242746B9
:1040B000F84A0121059400E0044316F8013F203B33
:1040C00001FA03F01042F7D130782A2811D06FF0AE
:1040D0002F033078A0F13002092A16D8059A44F04F
:1040E000020402EB820203EB42021044761C0590AC
:1040F000EFE759F8042B0592002A03DA504244F402
:104100000054059044F00204761C30782E2816D115
:1041100016F8010F44F004042A280DD06FF02F0286
:104120003078A0F13003092B09D807EB870302EBA5
:104130004303C718761CF3E759F8047B761C3078E4
:104140006C280FD006DC4C2817D068280DD06A28C0
:1041500014D104E0742810D07A280FD10DE044F473
:1041600000140AE044F4801401E044F4401472782E
:10417000824202D104F58014761C761C30786628C1
:104180000BD013DC582877D009DC002875D04528DF
:10419000F6D04628F4D047281AD19DE118E06328CC
:1041A00035D0642879D0652812D195E1702873D074
:1041B00008DC6728F1D069286FD06E280DD06F28F1
:1041C00006D1B5E073282CD0752875D0782874D026
:1041D0005A46179990476D1C75E1C4F302500228A6
:1041E00009D003280DD0D9F8001004280DD00D6097
:1041F00009F1040967E1D9F80010EA17C1E9005292
:10420000F6E7D9F800100D80F2E70D70F0E719F825
:10421000041B8DF8001000208DF80100EA460120F3
:1042200003E059F804AB4FF0FF3061074FF0000195
:1042300002D40DE008F101018846B9420FDA804549
:10424000F8DB1AF808100029F4D108E008F10101A0
:1042500088468142FADB1AF808100029F6D1059841
:104260005B46A0EB080721463846179A00F094FAFF
:10427000284400EB080507E04DE029E10DE01AF8BD
:10428000010B5A4617999047B8F10108F7D25B46DF
:1042900021463846179A13E142E00A220092C4F3FD
:1042A00002524FF0000A022A08D059F804CB032A20
:1042B0004FEAEC710AD00DE029E02AE009F107018C
:1042C00021F00702F2E802C1914609E00FFA8CFCE6
:1042D0004FEAEC71042A03D14FFA8CFC4FEAEC71DF
:1042E000002907DA0A460021DCF1000C61EB02012B
:1042F0002D2202E0220504D52B228DF80420012274
:1043000003E0E20701D02022F7E7904659E00A21B6
:1043100002E010220DE010214FF0000A00910BE0A6
:1043200010224FF0000A44F004040827009203E032
:1043300008224FF0000A0092C4F30252022A05D06C
:1043400059F804CB0021032A08D009E009F107013C
:1043500021F00702F2E802C1914605E01FFA8CFC49
:10436000042A01D10CF0FF0C4FF00008220728D5D9
:10437000702806D0009B83F0100353EA0A0305D08F
:104380000EE040228DF80420012208E05CEA0102E0
:1043900006D030228DF804208DF8050002229046C8
:1043A000009B83F0080353EA0A030AD15CEA010286
:1043B00001D1620705D530228DF804204FF00108A5
:1043C0007F1E582804D034A003900EA802900DE060
:1043D00036A0F9E753466046009AFBF723FF844670
:1043E0000398825C0298401E029002705CEA010011
:1043F000F0D1029806A9081A00F1200A600702D538
:1044000024F4803400E00127574502DDA7EB0A00C1
:1044100000E0002000EB0A01009005984144401A9A
:104420000590E00306D45B462146179A059800F0F4
:10443000B3F90544002706E001A85A46C05D179964
:1044400090476D1C7F1C4745F6DBE0030CD55B46AF
:104450002146179A059800F09FF9054404E03020A2
:104460005A46179990476D1C0099481E00900029E4
:10447000F5DC08E0029802995A460078491C02913E
:10448000179990476D1CBAF10001AAF1010AF1DCFD
:1044900065E1000009280100303132333435363708
:1044A0003839616263646566000000003031323380
:1044B0003435363738394142434445460000000020
:1044C00000F058F90544761C307800287FF4ECADF4
:1044D00019B02846BDE8F08F620700D4062709F11D
:1044E000070222F0070CFCE80223E14603F0004833
:1044F0005FEA080C02D00FF2702C0DE05FEA045C5A
:1045000002D50FF2682C07E05FEAC47C02D00FF2FC
:10451000602C01E0AFF2700C4FF0FF3823F0004345
:10452000CDF850C065280CD006DC452809D04628B7
:104530001DD047283DD13DE0662818D067287ED1A0
:1045400038E00021112F01DB112000E0781CCDE9BB
:10455000000106A90EA8FFF7EDFCDDE90F010E9A98
:1045600003910021009207F1010A04914DE04FF000
:1045700000400097CDE9011006A90EA8FFF7DAFC6C
:10458000DDE90F0203920E9B11990022DDF80CA0C9
:104590000093049211B9791C00EB010AB7EB0A00F1
:1045A00004D4C0F1FF3007F1010A0490AAEB070020
:1045B000019044E0012F00DA01270021112F01DDD5
:1045C000112000E03846CDE9000106A90EA8FFF74A
:1045D000B1FCDDE90F010E9A0391002104910092D4
:1045E000BA4621070CD40399514500DA8A46BAF13C
:1045F000010F05DD009AAAF10101515C302908D0B4
:10460000B84202DA10F1040F06DA0121CDE90110F7
:1046100015E0AAF10101E9E7002805DC049901444D
:104620000491AAEB000102E0411C514500DD8A46DD
:104630000499401A401C01904FF00040029020075E
:1046400004D40198504501DBCDF8048000208DF89A
:104650004F0002980DF14F07B0F1004F25D02B20ED
:104660000E9002984FF0020800280CDA40420290A7
:104670002D200E9007E00A210298FBF7BDFD303196
:10468000029007F8011DB8F10001A8F10108F2DC61
:1046900002980028EFD1791E0E980870307800F04B
:1046A000200040F0450007F8020D12A8C01B00F1E1
:1046B00007081498007800B1012000EB0A01019866
:1046C00001EBE07105984144401A401E0590E0035B
:1046D00006D45B462146179A059800F05DF805441C
:1046E0001498007818B15A46179990476D1CE0034A
:1046F00024D55B462146179A059800F04DF80544ED
:104700001CE00498002807DBDDE90301884203DD93
:104710000098405C179901E0179930205A4690475D
:10472000049805F10105401C04900198401E019079
:1047300004D12E205A46179990476D1CBAF10001FA
:10474000AAF1010ADDDC05E017F8010B5A461799BA
:1047500090476D1CB8F10001A8F10108F4DC5B463C
:104760002146179A0598ABE62D0000002B000000AB
:10477000200000002DE9F041044600251E461746A2
:10478000880404D405E039462020B0476D1C641E1F
:10479000F9D52846BDE8F0812DE9F0410446002511
:1047A0001E469046C80301D5302700E02027880424
:1047B00004D505E041463846B0476D1C641EF9D566
:1047C0002846BDE8F0810A68531C0B6010707047E2
:1047D00010B5054C02E02046FEF7DEFC2046FEF751
:1047E00094FC0028F7D110BDBC0700202DE9FC4740
:1047F000074600264FF00108154D164C40F2FF19F0
:10480000DFF854A01DE06A4601A95046CDF80080AB
:10481000FEF736FC9DF804100D2910D00A2910D09F
:1048200020682954401C206048450AD12E5400902D
:1048300026603D60FFF7CCFF0098BDE8FC8720684C
:10484000F4E75046FEF761FC0028DCD1F5E70000F4
:104850006800002004000020BC07002070B504465A
:104860000126D4E90210814200D861690D1A21693C
:1048700001442078820704D5AAB2606CFEF78CFB55
:1048800005E0C00706D0AAB2606CFEF73DFB08B990
:104890000026A561304670BD01213548FFF730FA8A
:1048A000FDF7B6F8FFF717F9FEF754FDFEF734FDF4
:1048B000FEF7DCFDFEF7E8FDFEF708FEFEF730FE32
:1048C000FEF744FEFEF70AFD2A48FEF79DFB2A4943
:1048D0002848FEF7A5FB2748FEF7B9FB27A273215E
:1048E0002AA000F08DF82C4C012280212046FDF7F3
:1048F0004EF8012220212046FDF749F8012211023D
:104900002046FDF744F8002210212046FDF73FF82D
:10491000012251022046FDF73AF815484838FEF7C3
:104920003BFE13483038FCF705F911481438FBF703
:10493000CEFF0F485838FFF7C8F80D4B143BA3F1D2
:10494000340202F11801A1F12800FFF7AFF908487D
:104950005838FFF7F9F81148FDF7FCFE04485838BD
:10496000FFF798F902485838FFF7B0F9F6E700006A
:1049700064080020B8040020F809002073746172F4
:1049800074206465627567200D0A00006D61696EB0
:104990002E63707000000000000C0140F40800203D
:1049A000044800680449096801EB810100EB4100FB
:1049B00070470000240800400800002002480168F9
:1049C000491C016070470000080000200FB40A482D
:1049D00070B505AA0499FFF781FA074C074D05E069
:1049E0002146641C01222846FEF709FC2078002895
:1049F000F6D170BC5DF814FB68020020BC070020F3
:104A00000FB4024670B50BA0FFF7E0FF07AA0B48F2
:104A10000699FFF763FA094C094D05E02146641C2D
:104A200001222846FEF7EBFB20780028F6D170BC67
:104A30005DF814FB25644025733A200068020020CD
:104A4000BC0700200000000001020304010203046F
:104A5000060708095E010000011F010303010000B1
:104A60008A020000010A0102020100006400000045
:104A70001E47040B090600007C010000010601032B
:104A800003010000F4010000060E01020201000013
:104A9000C20100001701010202010100544B00088D
:104AA0005C4B0008644B00086C4B0008744B00081A
:104AB0007C4B0008544B00085C4B0008644B00081A
:104AC0006C4B0008744B00087C4B000800404040D1
:104AD00040404040404041414141414040404040D1
:104AE000404040404040404040404040400502027D
:104AF000020202020202020202020202022020203C
:104B00002020202020202002020202020202909097
:104B10009090909010101010101010101010101095
:104B200010101010101010100202020202028888E9
:104B300088888888080808080808080808080808F5
:104B400008080808080808080202020240000000DD
:104B5000CD4A000830303030300000003130303085
:104B60003000000030313030300000003030313063
:104B70003000000030303031300000003030303054
:104B800031000000A84B0008000000204400000095
:104B9000083F0008EC4B0008440000206C0E0000A9
:104BA000183F000885F3FFFF000000000000000030
:104BB00000000000000000000000000000000000F5
:104BC000000000000A0000000000000000000000DB
:104BD00000000000000000000000000000000000D5
:0C4BE0000000000000A24A0400000000D9
:04000005080000ED02
:00000001FF
